:100000000AC018951895189518951895189518956B
:100010001895189518958FED8DBFC0ECE8EB4E2E16
:10002000DD275D2EEEE7F0E0A0E6B0E088278D93B7
:100030003197E9F7662480E081BB8FEF87BB8EE1C3
:1000400081BD86E081BD85E190E0A1E68D939C9322
:1000500080E090E0A3E68D939C9380E090E0A5E69D
:100060008D939C9380E090E0A7E68D939C9380E035
:1000700090E0A9E68D939C9380E090E0ABE68D93B1
:100080009C9380E090E0AFE68D939C9380E090E0BD
:10009000A1E78D939C9370E078BB88B391E08927AA
:1000A00088BB81E080936000009160000F3010F009
:1000B00009F019C088B391E0892788BB88B392E022
:1000C000892788BB88B390E1892788BB88B390E2F1
:1000D000892788BB88EC90E028D2A0E68C918F5FBE
:1000E0008C9308F4E1CF84EF91E01FD281B5886052
:1000F00081BD70E078BBA0E30C9101FB81E00EF0C4
:1001000080E08F93A3E70D911C91003050E015071C
:1001100081E009F080E09F918923882309F405C0DC
:1001200082E090E0A3E78D939C93A0E30C9102FB07
:1001300081E00EF080E08F93A3E60D911C910030DA
:1001400050E0150781E009F080E09F918923882322
:1001500009F405C085E190E0A3E68D939C93A3E6A6
:100160000D911C91043150E0150709F001C0C49AAB
:10017000A3E60D911C910A3050E0150709F001C06B
:10018000C498A3E60D911C91003050E0150714F0BF
:1001900009F001C008C0A3E60D911C910150104068
:1001A000A3E60D931C93A3E70D911C91023050E040
:1001B000150709F001C0C59AA3E70D911C91013004
:1001C00050E0150709F001C0C598A3E70D911C91F7
:1001D000003050E0150714F009F001C008C0A3E793
:1001E0000D911C9101501040A3E70D931C93A0E3C7
:1001F0000C9101FB81E00EF080E08F93A0E30C9165
:1002000002FB81E00EF080E09F91892B882309F4A6
:1002100001C0C298A0E30C9101FB81E00EF480E0E4
:100220008F93A0E30C9102FB81E00EF480E09F919C
:100230008923882309F401C0C29A839905C085E106
:1002400090E0A5E68D939C93849905C08DEC91E098
:10025000A5E68D939C93A5E60D911C910A3050E084
:10026000150709F001C0C39AA5E60D911C91003055
:1002700050E0150709F001C0C398A5E60D911C9147
:10028000003050E0150714F009F001C008C0A5E6E1
:100290000D911C9101501040A5E60D931C93A0E315
:1002A0000C9100FB81E00EF480E08F93A7E60D91A6
:1002B0001C91003050E0150781E009F080E09F912B
:1002C00089238F93AFE60D911C91003050E0150704
:1002D00081E009F080E09F918923882309F40AC016
:1002E00085E190E0A7E68D939C9381E090E0ABE6FA
:1002F0008D939C93A0E30C9100FB81E00EF080E0D5
:100300008F93AFE60D911C91003050E0150781E00E
:1003100009F080E09F918923882309F405C081E0DA
:1003200090E0A1E78D939C93A1E70D911C91013082
:1003300050E0150781E009F080E08F93ABE60D9166
:100340001C91013050E0150781E009F080E09F9199
:1003500089238F93A9E60D911C91003050E0150779
:1003600081E009F080E09F9189238F93A7E60D91AA
:100370001C91003050E0150781E009F080E09F916A
:100380008923882309F410C08BE090E0A7E68D93C1
:100390009C938BE090E0A9E68D939C9381E090E0A4
:1003A000AFE68D939C93C69A859B10C080E090E049
:1003B000ABE68D939C9380E090E0AFE68D939C93A9
:1003C00080E090E0A1E78D939C93C698A0E30C9108
:1003D00000FB81E00EF080E08F93AFE60D911C9161
:1003E000003050E0150781E009F080E09F918923FB
:1003F0008F93A9E60D911C91003050E0150781E024
:1004000009F080E09F918923882309F405C085E1E4
:1004100090E0A9E68D939C93A7E60D911C910B307B
:1004200050E0150709F001C0C09AA7E60D911C9194
:10043000063050E0150709F001C0C098A7E60D91FD
:100440001C91003050E0150714F009F001C008C0FD
:10045000A7E60D911C9101501040A7E60D931C9347
:10046000A9E60D911C91063050E0150709F001C076
:10047000C19AA9E60D911C91013050E0150709F0D1
:1004800001C0C198A9E60D911C91003050E01507FC
:1004900014F009F001C008C0A9E60D911C910150AB
:1004A0001040A9E60D931C93A1E60D911C9100301C
:1004B00050E0150714F009F001C008C0A1E60D9145
:1004C0001C9101501040A1E60D931C93A1E60D91E3
:1004D0001C91063050E0150709F001C0C79AA1E64B
:1004E0000D911C91013050E0150709F001C0C7982B
:1004F000A1E60D911C91003050E0150709F005C0F0
:1005000085E190E0A1E68D939C93A89584E690E028
:100510000CD0F1CDF894FFCF3197F1F7089568949E
:1005200062F80895E89462F80895EF93FF93EE2738
:10053000E82BE92B31F0E0EDF7E03197F1F7019787
:08054000D1F7FF91EF9108953E
:00000001FF
